:02000004080AE8
:1000000000000A0844140A08000006000600050162
:080010000402E60500000000F7
:04001800C0100A0802
:10001C0009480A4908B5884205D0094A824202D0EB
:10002C00121A01F003F80748074A0021121A01F0CE
:10003C0008F8064808BD00BF00000020B4130A08E9
:10004C006800002068000020DC050020DC05002092
:10005C0070B500F0EFFD074B074C1E46E41AA408E0
:10006C000025A54204D056F8253098470135F8E70D
:10007C0070BD00BF80130A08B0130A0800F016B850
:10008C0008B500F059F8BDE8084000F095BD00F047
:10009C00D3B90078B0FA80F040097047012303709F
:1000AC0070470368C9B29B681847000008B500F098
:1000BC008FFC4FF4165100F071FC00F089FC1049D4
:1000CC0000F027FB00F0FCFD00F008FA00F0F8FD52
:1000DC00202100F00DFA00F0F3FD0021FFF7E1FF05
:1000EC0000F0EEFD0021FFF7DCFF00F0E9FD00F071
:1000FC0006FA00F06DFCBDE80840024900F009BBAF
:10010C00D4100A08F5100A0810B5044600F0D8FD02
:10011C00202100F0EDF900F0D3FD1221FFF7C1FF13
:10012C0000F0CEFD2146FFF7BCFF00F0C9FDBDE895
:10013C00104000F0E4B9000008B50020FFF7E4FF20
:10014C0000F046FC0A4900F0E4FA4FF47A7000F033
:10015C007BF90120FFF7D8FF00F03AFC054900F0CD
:10016C00D8FABDE808404FF47A7000F06DB900BFC2
:10017C00FC100A0800110A0800F010B808B5024B70
:10018C001B685B68019308BD9C01060808B5024B0F
:10019C001B685B69019308BD9C01060808B5024BFE
:1001AC001B681B68019308BDB001060808B5024B1B
:1001BC001B68DB6C019308BDAC01060808B5024B4B
:1001CC001B689B6D019308BDAC01060808B5024B7A
:1001DC001B68DB6D019308BDAC01060808B5024B2A
:1001EC001B681B6E019308BDAC01060808B5024BD9
:1001FC001B685B6E019308BDAC01060808B5024B89
:10020C001B689B6E019308BDAC01060808B5024B38
:10021C001B68DB6E019308BDAC01060808B5024BE8
:10022C001B681B6F019308BDAC01060808B5034B96
:10023C001B68D3F88030019308BD0000AC010608A0
:10024C0008B5024B1B689B69019308BDC4010608E5
:10025C0008B5024B1B685B6A019308BDC401060814
:10026C0008B5024B1B689B6A019308BDC4010608C4
:10027C0008B5024B1B68DB6A019308BDC401060874
:10028C0008B5024B1B681B6B019308BDC401060823
:10029C0008B5024B1B685B6B019308BDC4010608D3
:1002AC0008B5024B1B681B6C019308BDC401060802
:1002BC0008B5024B1B681B68019308BDD8010608E2
:1002CC0008B5024B1B685B68019308BDD801060892
:1002DC0008B5024B1B681B69019308BDD8010608C1
:1002EC0008B5024B1B685B69019308BDD801060871
:1002FC0008B5024B1B689B69019308BDD801060821
:10030C0008B5024B1B68DB69019308BDD8010608D0
:10031C0008B5024B1B681B6A019308BDD80106087F
:10032C0008B5024B1B689B6C019308BDC001060805
:10033C0008B5024B1B685B68019308BDA401060855
:10034C0008B5024B1B685B69019308BDA401060844
:10035C0008B5034B1B68D3F89030019308BD00001F
:10036C00A401060808B5034B1B68D3F89C30019315
:10037C0008BD0000A401060808B5024B1B68DB6B26
:10038C00019308BDCC01060808B5024B1B685B68DD
:10039C00019308BDC801060808B5024B1B689B6891
:1003AC00019308BDC801060808B5024B1B68DB6841
:1003BC00019308BDC801060808B5024B1B681B69F0
:1003CC00019308BDC801060808B5024B1B685B69A0
:1003DC00019308BDC801060808B5024B1B689B6950
:1003EC00019308BDC801060808B5024B1B68DB6900
:1003FC00019308BDC801060808B5024B1B681B6AAF
:10040C00019308BDC801060808B5024B1B681B6B9D
:10041C00019308BDC801060808B5024B1B685B6B4D
:10042C00019308BDC801060808B5024B1B681B6880
:10043C00019308BDA001060808B5024B1B685B6858
:10044C00019308BDA00106080021FFF779BF10B584
:10045C008368044613B1032201469847204610BD19
:10046C007047F8B5064615460C468F18BC4206D0A8
:10047C00336814F8011B9B6830469847F6E728460A
:10048C00F8BD0022007CFFF7A9BE0021007CFFF71D
:10049C00ADBE0021007CFFF7B1BE0021007CFFF750
:1004AC00B5BE0021007CFFF7B9BE10B5044614217F
:1004BC0000F049FC204610BD10B5044600236360D3
:1004CC004FF47A73A360044B2174084623601146E1
:1004DC00FFF7ACFE204610BD0C110A0800231A468B
:1004EC001946007CFFF762BE0022007CFFF766BE57
:1004FC00C9B2FFF7F9BF0022007CFFF767BE0121EC
:10050C00FFF7F9BF704710B50446182100F01BFC2B
:10051C00204610BDF8B50F4600F10806051D002455
:10052C0016F8011D0A22384600F0FDF8AE420444CC
:10053C0007D0002CF4D02E21384600F0DBF8044410
:10054C00EEE72046F8BD000010B50446044B11221E
:10055C0040F8043B002100F074FD204610BD00BFA4
:10056C0034110A080346074A10B543F8042B01F16D
:10057C00100251F8044B914243F8044BF9D10A781C
:10058C001A7010BD34110A08024A4160026004223C
:10059C000275704734110A0810B59DF8084044EAFA
:1005AC00032343EA024242EA0161042341600375DA
:1005BC0010BD000037B5044D05609DF8185000952E
:1005CC00FFF7EAFF03B030BD34110A08014A024BB1
:1005DC001A607047B6110A086C00002000231A46F6
:1005EC004068FFF7D1BE002202214068FFF7DCBE55
:1005FC00002211464068FFF7CFBE0022114640682A
:10060C00FFF7DABE00231A4619464068FFF7DCBE36
:10061C0000231A4619464068FFF7DEBE002281F01F
:10062C0001014068FFF7E0BE00224068FFF7ECBE16
:10063C00002211464068FFF7EFBE002211464068C9
:10064C00FFF7DABE70B516468EB0044608A8FFF761
:10065C007BFF1122002103A800F0F3FC304600F0D0
:10066C0021FD00250A4B009581B25B6803AA304638
:10067C00FFF756FE20B129462046FFF785FF03E021
:10068C0003A92046FFF76EFF20460EB070BD00BFD9
:10069C00F4040020024B034A1A6000225A6070478F
:1006AC00700000202C120A08F8B506460D468F186B
:1006BC000024BD420CD0336815F8011B9B683046F2
:1006CC009847002801DB0444F3E7002C08BF0446DC
:1006DC002046F8BD70B505460C46084649B100F0F9
:1006EC00E1FC2B68024621462846BDE87040DB68D9
:1006FC00184770BD03689B68184738B50D2105462F
:10070C00FFF7F8FF0A2104462846FFF7F3FF2044C1
:10071C0038BD38B50546FFF7DDFF04462846FFF720
:10072C00ECFF204438BD012A98BF0A2230B50B4695
:10073C008BB000218DF824100DF12304B3FBF2F5DE
:10074C0005FB1233DBB2092B94BF30333733DBB2EA
:10075C00214604F801392B46002DEFD1FFF7BAFFE3
:10076C000BB030BD10B50446FFF771FE204610BD2E
:10077C00034800238360034A034900F0DFBA00BF3B
:10078C00780000206800002071070A0810B50446A4
:10079C00006818B1FFF750FE0023236010BD10B5A0
:1007AC000446FFF7F3FF204610BD00004FF6FF7321
:1007BC0010B5084C00202060A080A07120816381BE
:1007CC00FFF7B6FD2046BDE81040034A034900F090
:1007DC00B5BA00BF8800002068000020AB070A08EB
:1007EC00024B1A68024B1A60704700BF00000020D1
:1007FC009400002070474174704708B5007CFFF7E7
:10080C004FFD20EAE07008BD08B5007CFFF728FD1D
:10081C0020EAE07008BD08B5007CFFF731FD30EA36
:10082C00200028BF4FF0FF3008BD08B5007CFFF753
:10083C001FFD30EA200028BF4FF0FF3008BD007CC0
:10084C00FFF726BD10B50446142100F07CFA2046B3
:10085C0010BD70B5457C04460E4625B9007CFFF7EB
:10086C001FFD002805DD3146207CBDE87040FFF7F8
:10087C00EFBC284670BD000010B504460846114672
:10088C00002262604FF47A72A260054A20742260E2
:10089C00012262741A46FFF7D3FC204610BD00BF3C
:1008AC008C120A0838B50C4D296811F0010411D1CD
:1008BC002846FFF7EEFB68B1084A2146084B094869
:1008CC00FFF7DAFF2846FFF7E9FB074A0749054817
:1008DC0000F034FA034838BD300100203401002008
:1008EC00AC000020980000206800002001080A08D5
:1008FC0041747047704708B50021007CFFF7F8FC85
:10090C0030EA200028BF4FF0FF3008BD08B50121A8
:10091C00007CFFF7EDFC30EA200028BF4FF0FF30E1
:10092C0008BD08B5007CFFF7DBFC20EAE07008BDD1
:10093C0008B5007CFFF7CCFC20EAE07008BD007C19
:10094C00FFF7E6BC10B50446142100F0FCF9204674
:10095C0010BD38B50446007C0D46FFF7C1FC0028DD
:10096C0001DC607C28B12946207CFFF7C9FC20EA19
:10097C00E07038BD10B50446002363604FF47A7301
:10098C00A360054B08462360012321746374114650
:10099C00FFF78EFC204610BDBC120A080022007C1A
:1009AC00FFF78EBC10B504461422002100F049FB61
:1009BC00054B20466360054BE36040F20113238135
:1009CC008123238210BD00BF3D020020BC0100200A
:1009DC0030B50E4D87B001A8FFF7E4FF296811F080
:1009EC00010410D12846FFF754FB60B101AA21463F
:1009FC000748FFF7BFFF2846FFF750FB054A06499B
:100A0C00034800F09BF9024807B030BDB801002044
:100A1C00400300206800002001090A0810B50446B4
:100A2C001422002100F00DFB054B20466360054BA2
:100A3C00E36040F2011323818123238210BD00BFA8
:100A4C00F00300205803002010B50E4C86B001A80E
:100A5C00FFF7E4FF2368DB0710D42046FFF719FBF0
:100A6C0060B101AA01210848FFF784FF2046FFF777
:100A7C0015FB064A0649044800F060F9024806B026
:100A8C0010BD00BF54030020DC03002068000020D0
:100A9C0001090A08002211464068FFF78DBCF0B529
:100AAC00164689B011220F460446002103A800F017
:100ABC00C8FA304600F0F6FA0025009581B27B6842
:100ACC0003AA3046FFF72CFC20B129462046FFF73D
:100ADC005BFD03E003A92046FFF744FD204609B067
:100AEC00F0BD002211464068FFF786BC002211467B
:100AFC004068FFF791BC00224068FFF785BC0022DC
:100B0C0081F001014068FFF76FBC00231A461946BB
:100B1C004068FFF761BC00231A4619464068FFF78E
:100B2C0053BC002211464068FFF736BC002202215C
:100B3C004068FFF739BC00231A464068FFF724BC15
:100B4C00024B04225A60024A1A607047F4040020D7
:100B5C00EC120A0808B5144B33B1FFF739FF0368E0
:100B6C001B699847002816DC104B33B1FFF79AFE2F
:100B7C0003681B699847002810DC0D4B0BB1AFF3D1
:100B8C0000800C4B7BB1FFF75FFF03681B69984734
:100B9C00002806DC08BDAFF30080E5E7AFF300806A
:100BAC00EBE7AFF3008008BD000000000000000080
:100BBC00000000000000000008B5FFF7CBFFFFF7B6
:100BCC00E5FA014B186008BD040500200248034AF1
:100BDC000349121A00F02ABA0040024004400240B5
:100BEC00B0130A0807B5002300931A466FF077017B
:100BFC00FFF7B8FB03B05DF804FB000007B54388B2
:100C0C000A2B08D0502B09D1094B1B683BB103B000
:100C1C005DF804EB1847FFF7E5FF06E000230093AF
:100C2C001A466FF07701FFF79DFB03B05DF804FBEC
:100C3C00FC04002038B5104C104D2368AB42104B0F
:100C4C000CBF012200221A7002D0FFF7BFFF2560F3
:100C5C00FFF794FA044600F0FDF90A4B13B1204655
:100C6C00AFF3008000210748FFF786FBBDE8384052
:100C7C0000210548FFF76CBB004002401E1C279A60
:100C8C000005002000000000090C0A0870B504469D
:100C9C0014252A46094E002100F0D3F92580202581
:100CAC003146A5602561284600F067F83146606042
:100CBC00284600F062F8E060204670BD18130A0860
:100CCC0030B50E4D87B0296811F0010413D12846B8
:100CDC00FFF7DFF978B101A8FFF7D8FF01AA214689
:100CEC000748FFF7E9FB2846FFF7D8F9054A0649FC
:100CFC00034800F023F8024807B030BD0805002077
:100D0C000C050020680000206D040A0813B5084C7F
:100D1C0000231A46194600932046FFF74BFC204649
:100D2C00044A054902B0BDE8104000F007B800BF06
:100D3C00200500206800002011050A080B4601461A
:100D4C00184600F065B9FFF7A2B90000024B18680D
:100D5C00BFF35F8F704700BF3805002010B5002827
:100D6C0014BF044601242046FFF75EFB20B9FFF7B1
:100D7C00EDFF08B18047F6E710BDFFF7EFBF0000AD
:100D8C00244B1A68D0075CBF01221A60224B1A68E8
:100D9C00D1075CBF01221A60204B1A68D2075CBFD6
:100DAC0001221A601E4B1A68D0075CBF01221A6020
:100DBC001C4B1A68D1075CBF01221A601A4B1A68C7
:100DCC00D2075CBF01221A60184B1A68D0075CBFAF
:100DDC0001221A60164B1A68D1075CBF01221A60F7
:100DEC00144B1A68D2075CBF01221A60124B1A68A6
:100DFC00D0075CBF01221A60104B1A68D1075CBF88
:100E0C0001221A600E4B1A68D2075CBF01221A60CD
:100E1C00704700BF680500206405002060050020B5
:100E2C005C050020580500205405002050050020CA
:100E3C004C050020480500204405002040050020FA
:100E4C003C050020184B1A68D1075CBF01221A60C0
:100E5C00164B1A68D2075CBF01221A60144B1A6831
:100E6C00D0075CBF01221A60124B1A68D1075CBF15
:100E7C0001221A60104B1A68D2075CBF01221A605B
:100E8C000E4B1A68D0075CBF01221A600C4B1A6813
:100E9C00D1075CBF01221A600A4B1A68D2075CBFEB
:100EAC0001221A60704700BF8805002084050020CD
:100EBC00800500207C0500207805002074050020AA
:100ECC00700500206C050020184B1A68D1075CBF18
:100EDC0001221A60164B1A68D2075CBF01221A60F5
:100EEC00144B1A68D0075CBF01221A60124B1A68A7
:100EFC00D1075CBF01221A60104B1A68D2075CBF85
:100F0C0001221A600E4B1A68D0075CBF01221A60CE
:100F1C000C4B1A68D1075CBF01221A600A4B1A6885
:100F2C00D2075CBF01221A60704700BFA8050020E1
:100F3C00A4050020A00500209C0500209805002099
:100F4C0094050020900500208C050020244B1A6885
:100F5C00D0075CBF01221A60224B1A68D1075CBF14
:100F6C0001221A60204B1A68D2075CBF01221A605A
:100F7C001E4B1A68D0075CBF01221A601C4B1A6802
:100F8C00D1075CBF01221A601A4B1A68D2075CBFEA
:100F9C0001221A60184B1A68D0075CBF01221A6034
:100FAC00164B1A68D1075CBF01221A60144B1A68E1
:100FBC00D2075CBF01221A60124B1A68D0075CBFC3
:100FCC0001221A60104B1A68D1075CBF01221A600B
:100FDC000E4B1A68D2075CBF01221A60704700BF23
:100FEC00D8050020D4050020D0050020CC05002019
:100FFC00C8050020C4050020C0050020BC05002049
:10100C00B8050020B4050020B0050020AC05002078
:10101C0010B5054C13462CB10A4601460220AFF31D
:10102C00008010BD204610BD0000000010B5431E0E
:10103C000A44914204D011F8014B03F8014FF8E730
:10104C0010BD03460244934202D003F8011BFAE799
:10105C007047000038B5124B05461C68A36BD3B91A
:10106C001820FFF7E1F943F20E33A06303804AF630
:10107C00CD33438041F2342383804EF26D63C380C1
:10108C004DF6EC630381052343810B2383810122FD
:10109C000023C0E90423A36B00221D615A6138BDF3
:1010AC0064000020034613F8012B002AFBD1181A08
:1010BC00013870471D000A085D000A0889000A08FB
:1010CC008D000A080000000052454C41593820643C
:1010DC00656D6F6E7374726174696F6E2073746179
:1010EC007274696E672075700052656164792E00A8
:1010FC004F4646004F4E000000000000000000006C
:10110C006D040A08B7040A088F040A086F040A0859
:10111C0097040A089F040A08A7040A08AF040A08DF
:10112C00000000000000000021050A0811050A0853
:10113C0013050A08626175640053657269616C007D
:10114C0055534253657269616C3100747970650056
:10115C00706172616D00636D6400696400686E6437
:10116C00007374726D0066696C74006C766C00614F
:10117C00646448616E646C65720072656D6F76654F
:10118C0048616E646C657200656E756D48616E6465
:10119C006C657273004A534F4E53747265616D4C9B
:1011AC006F6748616E646C65720061707000253009
:1011BC0031307520005D20002564002C200028298A
:1011CC003A2000205B00636F6465203D2000256998
:1011DC000064657461696C73203D20000D0A006623
:1011EC00006C6E00666E00636F646500646574610C
:1011FC00696C006E6F6E6500747261636500696E78
:10120C00666F007761726E006572726F720070614A
:10121C006E696300616C6C0000000000000000004F
:10122C00E9050A08F3050A08FD050A0807060A0875
:10123C0011060A081D060A0829060A0835060A08B6
:10124C003D060A0847060A0851060A085A00252BCB
:10125C003033643A253032750025592D256D2D25F6
:10126C00645425483A254D3A2553257A0061736319
:10127C0074696D65000000000000000000000000B3
:10128C0001080A0851080A085F080A08B5060A0886
:10129C0015080A0837080A0823080A084B080A0820
:1012AC0003080A0807080A080000000000000000F4
:1012BC0001090A0851090A085F090A08B5060A0853
:1012CC003D090A0803090A0819090A084B090A0802
:1012DC002F090A08FD080A080000000000000000A1
:1012EC00430B0A08390B0A082F0B0A08A10A0A0833
:1012FC00230B0A08170B0A080B0B0A08030B0A0826
:10130C00F90A0A08EF0A0A08AB0A0A0800000000EA
:10131C0000000000000000000000000000000000C1
:10132C0000000000000000000000000000000000B1
:10133C0000000000000000000000000000000000A1
:10134C000000000000000000000000000000000091
:10135C000000000000000000000000000000000081
:10136C000000000000000000000000000000000071
:10137C004300000085010A08D9050A08A1060A08DD
:10138C007D070A08B9070A08ED070A084D0B0A0879
:10139C00190D0A088D0D0A08510E0A08D50E0A08F7
:0413AC00590F0A08C3
:0413B0000000000039
:1013B40079120A08000000001C130A083C130A08EA
:1013C4005C130A0800000000000000000000000098
:1013D400000000007C130A08000000000000000068
:1013E40000000000000000000000000000000000F9
:1013F40000000000000000000000000000000000E9
:1014040000000000000000000000000000000000D8
:081414000000000004000020AC
:10141C00FFFFFFFF00000102030405060708090A8D
:10142C000B0C0D0E0F101112131415161718191A88
:08143C001B1C1D1E1F202800CF
:041444007856341290
:04000005080A001CC9
:00000001FF
